:020000040000FA
:1000000000020020C100000000000000CD00000040
:1000100000000000000000000000000000000000E0
:10002000000000000000000000000000CF00000001
:10003000000000000000000001240000000000009B
:100040000126000001270000011700000110000038
:100050000112000001110000012500000000000055
:100060000000000000000000000000000000000090
:100070000000000000000000000000000000000080
:100080000000000000000000000000000000000070
:100090000000000000000000000000000000000060
:1000A0000000000000000000000000000000000050
:1000B0000000000000000000000000000000000040
:1000C00005488047054800680047FEE7FEE7FEE771
:1000D000FEE7FEE7FEE7000001130000202000001D
:1000E000F0B4FB48FB4D0178FB4B00240A290CD0EF
:1000F000FA4F142913D0F948F94A8027F94E0068BD
:100100001E291BD0282930D123E01D6000200121A9
:10011000C9030460001D8842FBD31C6025E0002059
:1001200072B61D60396882008E588031096F8E501A
:100130001C6062B6401C1028F2D316E001683162E0
:100140001D60E949006888631C60107C38431074A6
:100150000BE000218B00C5589B191D60491CC9B2DA
:100160001029F7D3107C38431074D9480470F0BCC0
:10017000704710B403460B430CD00346521E541C68
:1001800006D00C781C70491C5B1C521E541CF8D104
:1001900010BC704710BC0020704710B403461343D6
:1001A0000BD00346521E541C05D0C9B219705B1CFB
:1001B000521E541CFAD110BC704710BC002070476E
:1001C000F0B50124E407C64D287A400840002872A3
:1001D000C64B0D21187862784843C549402640181F
:1001E00002270021522A23D008DC0B2A76D0262AA7
:1001F0000BD0302A73D0502A4DD1BEE0932A2CD098
:10020000952A73D0A22A46D1E4E0407818700128DC
:1002100009D90420207061704420A070E170287911
:1002200030432871CCE128794006400E2871C7E19F
:100230008078187001280BD9042020706170442048
:10024000A070E170AB480170287930432871B7E1A4
:1002500028794006400E2871B2E1A278202A06D003
:10026000702A1ED028794006400E2871A8E1C07877
:100270001870012810D90720207061708820A070A4
:100280005420E0704E20207142206071D020A07177
:1002900028793043287193E128794006400E28716F
:1002A0008EE12179542905D161794E2902D1A179B4
:1002B000422906D0007B187028794006400E28712C
:1002C0007EE10079187001280BD903202070677037
:1002D0000420A07028793043287171E18DE053E04B
:1002E00004E028794006400E287169E1A278202AAE
:1002F00006D0702A1DD028794006400E28715FE193
:100300004079187001280FD90720207061704F20A4
:10031000A070E07054202071202060717420A071C2
:100320002879304328714BE128794006400E287126
:1003300046E1E2784F2A08D122794F2A05D1627925
:10034000542A02D1A279202A06D0007B187028797D
:100350004006400E287133E180791870012807D9D2
:10036000032020706770A17028793043287127E13D
:1003700028794006400E287122E1407A18702879C9
:100380004006400E28711BE1807A187001281CD9A4
:10039000A2781220207067700020524B9200197AC8
:1003A0008907890F012905D953491718C95D2718ED
:1003B000B97002E000212718B970401CC0B21028A3
:1003C000EDD3287930432871FAE028794006400EB1
:1003D0002871F5E0C07A1870012809D9032020702F
:1003E000012060700A20A070287930432871E7E06E
:1003F00028794006400E2871E2E03848A27800686B
:100400000D2A0DD00E2A37D0512A41D0452A4AD084
:100410005623562A4FD0532A7BD00C2A78D088E016
:10042000E278A179120611432279637912041B0242
:100430001A431143F022115001225203891A032258
:100440005203914202D8224914220A70E279012A09
:100450000DD00021FFF7A1FE0520207067700B2052
:10046000A0705220E0701A4800782071A5E0402268
:100470002249FFF77EFEEFE715490A2008700521A3
:10048000217067700B21A1705221E170207194E0FE
:100490000520207067700B20A0705220E0700C487F
:1004A0000078207189E0BFF34F8F16491448C86067
:1004B000BFF34F8FFEE71820207067700B20A070ED
:1004C000E370142210491148FFF753FE75E020E055
:1004D000DC0F0020287BA59300060040D80F0020E9
:1004E0002003004000030040C0070060D40F00203C
:1004F00028080000DC100020A00800000800008090
:100500000400FA0500ED00E0D07F00000400008048
:100510000CE02420207067700B20A070E370B648B8
:1005200020220168B548FFF724FE46E0E3780C2B53
:1005300002D0DD2A12D014E02179002903D0B04A7C
:100540001E23137001600520207067700B20A070BF
:100550005220E070AA48007820712EE0E378DD2B6D
:1005600002D0EE2A0CD00EE00520207067700B2020
:10057000A070A448008CE070A148007820711CE0B5
:10058000E378EE2B02D0B02A12D016E09C49282244
:100590000A7010229949FFF7ECFD05202070677062
:1005A0000B20A0705220E07095480078207104E084
:1005B000042020706770A170E170287930432871A1
:1005C0000120F0BD10B5904C2079802108432071A6
:1005D000FFF7F6FD2079DF21084020718B491020BC
:1005E000086010BD88480179BF221140017101796E
:1005F0004906490E01710179EF22114001718349C9
:100600000820086070478249002008707E48017AFF
:1006100049060CD4017A4908490001720179BF22C8
:100620001140017101794906490E017103E0017C15
:10063000802211430174017949084900017173490D
:10064000202008607047F0B5724C2168E031087DC9
:1006500043075B0F0B750126B607307E6E4D0027F2
:10066000AA89A82832D008DC602820D06A4A8028CD
:1006700012891FD0A02806D13EE0B82828D0C8286B
:1006800038D0F8283FD000BFF4212068095C4A0721
:100690002DD05B4BCA0764D028680B210078012855
:1006A00033D0562202283BD0032846D052E02F8177
:1006B0006F81E9E7E889824206D2307B2968885455
:1006C0002889401C2881DFE7307BDDE7002A08D03D
:1006D000688982420CD9411C69816968085C307361
:1006E000D2E72F816F81AF81012003430B75F0BDED
:1006F0003773C9E700BFC7E7002A02D004200343CD
:100700000B75AF81C0E700BFF0BD68680170696814
:10071000522048706968187888700320A88119E011
:10072000686801706868427068681422801C3B49E0
:10073000FFF71FFD1620A8810CE06868017068684B
:10074000427068682C49801C20220968FFF711FD5F
:100750002220A8812068E030017D49084900017508
:10076000F0BD4907FCD529680A78042A04D0052A77
:1007700023D0062A2AD022E04D780A792D062A4372
:100780008D78CE782D04360235432A43F0252A5041
:1007900001256D03521B03256D03AA4201D81422C3
:1007A0001A704A79012A03D00021FFF7F6FC06E00F
:1007B000891D4022FFF7DDFC01E00A201870206847
:1007C000FB22E030017D11400175F0BDBFF34F8F7A
:1007D00014491348C860BFF34F8FFEE700B5FFF719
:1007E00032FF01208007017CF72211400174074984
:1007F0000420086000BD0000D41000200400008028
:10080000DC0F0020000300402003004080E200E0F5
:10081000D40F0020D80F0020F8180020D07F00004F
:100820000400FA0500ED00E00002020000000000F4
:1008300000000000000001030101010101010101AC
:10084000010100000002040200020000000000009C
:10085000010103050301030101010101000000047E
:100860000004060400000000000001010501050766
:10087000050101010101000000000000000000016D
:100880000606000001010101010101010107070144
:10089000000803C200040E00030000000003000073
:1008A000544E424F4F54202064480000E110FC0099
:1008B0000303D00000FE0000000000000000000064
:1008C0000000000000000000000000000000000028
:1008D0000000000000000000000000000000000018
:1008E0000000000000000000000000000000000008
:1008F00000000000000000000000000000000000F8
:1010000010B505480078002802D0FFF7EBFA10BDB4
:1010100001F076F810BD0000D00F002000000000A5
:1010200000000000000000000000000000000000C0
:1010300000000000000000000000000000000000B0
:1010400000000000000000000000000000000000A0
:101050000000000000000000000000000000000090
:101060000000000000000000000000000000000080
:101070000000000000000000000000000000000070
:101080000000000000000000000000000000000060
:101090000000000000000000000000000000000050
:1010A0000000000000000000000000000000000040
:1010B0000000000000000000000000000000000030
:1010C0000000000000000000000000000000000020
:1010D0000000000000000000000000000000000010
:1010E0000000000000000000000000000000000000
:1010F00000000000000000000000000000000000F0
:1011000010B505480078002802D0FFF77CFA10BD22
:1011100001F076F810BD0000D00F002000000000A4
:1011200000000000000000000000000000000000BF
:1011300000000000000000000000000000000000AF
:10114000000000000000000000000000000000009F
:10115000000000000000000000000000000000008F
:10116000000000000000000000000000000000007F
:10117000000000000000000000000000000000006F
:10118000000000000000000000000000000000005F
:10119000000000000000000000000000000000004F
:1011A000000000000000000000000000000000003F
:1011B000000000000000000000000000000000002F
:1011C000000000000000000000000000000000001F
:1011D000000000000000000000000000000000000F
:1011E00000000000000000000000000000000000FF
:1011F00000000000000000000000000000000000EF
:1012000010B505480078002802D0FFF7DBF910BDC3
:1012100001F076F810BD0000D00F002000000000A3
:1012200000000000000000000000000000000000BE
:1012300000000000000000000000000000000000AE
:10124000000000000000000000000000000000009E
:10125000000000000000000000000000000000008E
:10126000000000000000000000000000000000007E
:10127000000000000000000000000000000000006E
:10128000000000000000000000000000000000005E
:10129000000000000000000000000000000000004E
:1012A000000000000000000000000000000000003E
:1012B000000000000000000000000000000000002E
:1012C000000000000000000000000000000000001E
:1012D000000000000000000000000000000000000E
:1012E00000000000000000000000000000000000FE
:1012F00000000000000000000000000000000000EE
:1013000030B50021144A00201070154A13481060AF
:1013100014480388202293430380838813438380E7
:10132000028880239A43028082881A4382800020A8
:101330000D4B0E4A145C1D5CAC4201D000F060F80D
:10134000145C6118401CC0B21428F3D3002901D1E9
:1013500000F056F830BD0000D00F0020000400203F
:10136000D80F002000050040D07F000000200000C2
:10137000000000000000000000000000000000006D
:10138000000000000000000000000000000000005D
:10139000000000000000000000000000000000004D
:1013A000000000000000000000000000000000003D
:1013B000000000000000000000000000000000002D
:1013C000000000000000000000000000000000001D
:1013D000000000000000000000000000000000000D
:1013E00000000000000000000000000000000000FD
:1013F00000000000000000000000000000000000ED
:1014000027490120087027480023037026484021FF
:1014100001602649264A087A002835D00020850038
:101420000C5CAD182C60401CC0B21028F7D32148CA
:10143000017C80221143017403720179F72211406B
:1014400001711D484168090A090240314160016883
:101450000A02120A4105511801604168FF22120276
:1014600091430122D2038918416014481021016080
:101470000821016020210160FEF732FEBFF34F8F8B
:1014800030BFBFF36F8FF7E700200D4985000C5C7C
:10149000AD182C60401CC0B21028F7D3C7E700007D
:1014A000D00F0020DC0F002080E100E0F00700609A
:1014B000000300402003004000E400E000E100E001
:1014C0009008000000000000000000000000000084
:1014D000000000000000000000000000000000000C
:1014E00000000000000000000000000000000000FC
:1014F00000000000000000000000000000000000EC
:1015000000000000000000000000000000000000DB
:1017000010B505480078002802D0FFF767F810BD33
:1017100001F076F810BD0000D00F0020000000009E
:1017200000000000000000000000000000000000B9
:1017300000000000000000000000000000000000A9
:101740000000000000000000000000000000000099
:101750000000000000000000000000000000000089
:102000004F6374203239203230323031303A323836
:102010003A33340003B40148019001BD011000209F
:1020200031200000704700207047704770477047AC
:102030000348854600F02AF900480047792E000041
:1020400000020020084B19680868203080F30988D6
:10205000022080F31488BFF36F8F3FBCAE4608BCEC
:1020600004BC62B61847000074100020EFF3108023
:1020700072B6704780F31088704730B50B46014642
:1020800000202022012409E00D46D5409D4205D3C1
:102090001D469540491B2546954040191546521E40
:1020A000002DF1DC30BD03460B439B0703D009E054
:1020B00008C9121F08C0042AFAD203E00B78037083
:1020C000401C491C521EF9D27047D2B201E0027086
:1020D000401C491EFBD270470022F6E710B513469C
:1020E0000A4604461946FFF7F0FF204610BD0000DF
:1020F00002490A8982430A817047000000050040B6
:1021000038B52F4C2079BF21084020712079400636
:10211000400E20712B480078062801D2012801D1F9
:1021200000F0B0F90A21002000BF401C8842FBD318
:10213000207B254980230A78801AC01C062808D9EC
:10214000207C184320740A21002000BF401C8842D4
:10215000FBD3207B801AC01C062808D9207C18439A
:1021600020740A21002000BF401C8842FBD3207B42
:10217000801AC01C062808D9207C184320740A2124
:10218000002000BF401C8842FBD3002000900F4875
:102190006946006801F06CFA0098002803D001211C
:1021A0000B48090741600B48022201781143017076
:1021B0002079EF210840207107490820086038BDC8
:1021C00020030040D40F0020D81000206810002009
:1021D00000ED00E0D010002080E200E0044900287B
:1021E00002D0002008607047024808607047000075
:1021F00000060040287BA593704772B6FEE70000FA
:1022000038B51B48002303701A4C207A40060ED4C0
:10221000207A4008400020722079BF2108402071B8
:1022200020794006400E207100F03AF903E0207C4E
:102230008021084320741048037000930F486946BA
:10224000006801F015FA0098002803D001200C491D
:10225000000748600B48042201781143017020797F
:1022600040084000207108492020086038BD000067
:10227000D40F002020030040DC1000206810002054
:1022800000ED00E0D010002080E200E0064C0125C7
:10229000064E05E0E36807CC2B430C3C984710340E
:1022A000B442F7D3FFF7C8FE903A0000C03A0000EE
:1022B00003498989014201D00120704700207047FD
:1022C0000005004003490A8882430A808A88024345
:1022D0008A8070470005004003490A8802430A804B
:1022E0008A8882438A8070470005004002490A8933
:1022F00002430A8170470000000500400000000012
:1023000038B5124C207980210843207100F0C8F8BC
:1023100000F000FB012500280FD100900C48694611
:10232000006801F0A5F90098002802D009492807A3
:10233000486009480178294301702079DF2108406D
:10234000207106491020086038BD000020030040BD
:102350006810002000ED00E0D010002080E200E0D6
:1023600002480179F72211400171704720030040B3
:10237000F8B50220FFF7B0FF0420FFF7ADFF4020C3
:10238000FFF7AAFF0124E4022046FFF7A5FF65003E
:102390002846FFF7A1FFA6103046FFF79DFF8020DB
:1023A000FFF79AFF67103846FFF796FF0220FFF706
:1023B0009DFF0420FFF79AFF4020FFF797FF20467C
:1023C000FFF794FF2846FFF791FF3046FFF790FE96
:1023D0008020FFF78DFE3846FFF78AFE2020FFF7AA
:1023E00071FFE010FFF76EFFF8BD0021016170473B
:1023F000024801790822114301717047200300400F
:10240000EFF309800E4B1A6820381060F0C0444684
:102410004D4656465F46F0C008B572B601F0A2F9C7
:1024200062B60CBC116808681030F0C8A046A94616
:10243000B246BB4680F309882038F0C81847000030
:102440007410002010B50420FFF750FF4020FFF764
:102450004DFF0120C002FFF749FF01200003FFF7F5
:1024600045FF10BD10B50420FFF742FE4020FFF7E6
:102470003FFE0120C002FFF73BFE01200003FFF7F3
:1024800037FE10BD00B50549092008700021202045
:1024900000F016F8FFF7ACFF00BD0000D2100020DE
:1024A00000B5034900200870FFF75AFF00BD000087
:1024B000D210002010B57D20C00000F0C5FD10BD79
:1024C000002901D0802108430149087770470000A6
:1024D0000003004002E008C8121F08C1002AFAD118
:1024E0007047002001E001C1121F002AFBD1704794
:1024F000024800790007C00F704700002003004029
:1025000010B500F0E3F801F06DF900F0B9FF10BD6F
:10251000F8B5124CFF27A5106610013716E0FFF73B
:10252000A1FF22462946304600F0CEFB06E0FFF729
:1025300089FF00221146104600F0C6FB642001F01E
:1025400085F82020FFF7B4FE002805D03846FFF7B5
:10255000AFFE0028EBD1E2E7F8BD00004992000091
:1025600010B50749097AC90708D0064C21680A78CE
:10257000491CFFF798FD2068007810BD002010BDB1
:1025800020030040E010002010B50748FFF7E8FFE7
:10259000002807D0044800218030017041700221DA
:1025A00000F004F810BD00000002002010B5034642
:1025B0000A460D4C207AC00713D00C48911C0068C5
:1025C0000170022141701946801CFFF76CFD207AD2
:1025D00040084000207220794021084320710120EA
:1025E00010BD002010BD000020030040E0100020BE
:1025F000BFF34F8F30BFBFF36F8F704700000000F5
:1026000070470000F0B42E4E307843075B0F3370F4
:1026100001229207107E2B4C0025A1890427A828AF
:1026200021D00ADC00283ED060280DD02549802822
:1026300009890CD0A0283AD12CE0B82815D0C82898
:1026400026D0F82833D12BE02581658130E0E08960
:10265000814206D2107B236858542089401C208177
:1026600026E0107B24E0002908D0608981420DD942
:10267000411C61816168085C107319E025816581E6
:10268000A581012003433370F0BC704715730FE040
:1026900000BF0DE0002901D03B433370A58107E066
:1026A00000BFF0BC7047107FFF210843107700BFC8
:1026B00005480760107CF72108401074F0BC704793
:1026C000D1100020F818002080E200E004480179D1
:1026D0004906490E01710349402008607047000017
:1026E0000004004080E200E0034B036018465430D1
:1026F0000860802010607047540400200000000033
:1027000070470000F8B50024284D294E6F00FF20C7
:102710000130FFF7CDFD002810D0002211461046F1
:1027200000F0D2FAFFF78EFEFF20F53000F08EFFAA
:102730002020FFF7BDFD0028E9D1F8BDFFF792FE8C
:10274000641CE4B2230000F03FF80729050B1117C1
:102750001D23290017480246014600F0B5FAE3E7B9
:102760002A461549304600F0AFFADDE732462946E1
:10277000384600F0A9FAD7E73A463146284600F035
:10278000A3FAD1E70D4A0E48911000F09DFACBE76D
:102790000B4A0C48911000F097FAC5E7094A9110CE
:1027A000480000F091FA0024BEE7000092240000E7
:1027B00049920000FFFF000024290000B66D0000D0
:1027C000DBB600006DDB000030B47446641E257873
:1027D000641CAB4200D21D46635D5B00E31830BC55
:1027E00018470000054C00F0D3FC2068012801D9EF
:1027F00000F020FFFFF7FCFEF5E7000000030020DB
:1028000008B5FFF7FFFE0D480078400714D0002000
:1028100000900B486946006800F02AFF00980028E5
:1028200003D00120074900074860074904200860D9
:10283000BFF34F8FBFF36F8F08BD0000D110002092
:102840006C10002000ED00E080E100E0F8B500260B
:102850000025002400221146104600F035FAFFF74B
:10286000F1FD294FFF200130FFF722FD002817D08E
:10287000761CF6B2022E03D90026002C00D0641E6E
:10288000002C30D0052C18D8A0003858002D0CD0C2
:102890000022114600F018FAFFF7D4FD002529E0C8
:1028A000641C0A2CECD30A24EAE7184A002100F041
:1028B0000BFAFFF7D7FD01251CE00A2C1AD8A0005F
:1028C0003958002D07D00022114800F0FDF9FFF71C
:1028D000B9FD00250EE00D4A0D4800F0F5F9FFF7AF
:1028E000C1FD012506E000221146104600F0ECF97A
:1028F000FFF7A8FD642000F0A9FE2020FFF7D8FC18
:102900000028AFD1F8BD0000FC390000FFFF000037
:1029100049920000F8B5E64C207A40084000207249
:10292000E448E54F41683E78E44A0D207043821840
:10293000E0484B7840258068932B41D008DC262B5B
:1029400014D0302B7ED0502B7DD0522B06D121E0DD
:10295000952B79D0A22B78D0C22B77D0D54A577837
:10296000002F74D08F78002F72D076E150783870B5
:1029700001280AD9042008700020487044228A7077
:10298000C87020792843207190E120794006400EDC
:1029900020718BE19078387001280CD90420C54B48
:1029A00008700020487044228A70C870187020791E
:1029B000284320717AE120794006400E207175E1AC
:1029C0008E78BC4B202E06D0702E24D02079400665
:1029D000400E20716AE1D0783870012816D907229C
:1029E00018460A7000224A7088268E708268137812
:1029F000CB7082685078087192784A715E4050407E
:102A000046408E712079284320714FE1207940069D
:102A1000400E20714AE10B790678B34222D14B79FE
:102A20004678B3421ED18B79807883421AD11079CF
:102A30003870012811D90320087002204870042042
:102A4000887006E075E06BE013E0A7E0E4E004E1E5
:102A5000FDE020792843207128E120794006400ECE
:102A6000207123E1107B387020794006400E2071E0
:102A70001CE18E788F4B202E06D0702E26D0207928
:102A80004006400E207111E150793870012818D9A4
:102A900007201A460870002048709068C078887037
:102AA000034690680679CE709268507908719279E1
:102AB0004A717340504043408B7120792843207104
:102AC000F4E020794006400E2071EFE0CB78C67824
:102AD000B3421ED10B790679B3421AD14B794679AC
:102AE000B34216D18B798079834212D190793870B4
:102AF000012809D90320087002204870002088703E
:102B0000207928432071D1E020794006400E2071C1
:102B1000CCE0107B387020794006400E2071C5E073
:102B2000507A3870FFF7AEFC20794006400E2071D5
:102B3000BCE0907A387001282BD95E4E8A7800204C
:102B4000970032785E4B9202D21912189A4212D82C
:102B50005C4B1B7A9B079B0F012B04D9B3689A5CD3
:102B60000B189A7002E000220B189A7012220A7059
:102B700002224A7005E003220A7001224A700022F4
:102B80008A70401CC0B21028DBD320792843207102
:102B90008CE020794006400E207187E0D07A3870B2
:102BA000012834D9434E8F780020FFF717FB4548A2
:102BB000007A8007800F022817D93178BA0088027E
:102BC00080183F4AC01C90420FD870680379C278C1
:102BD0001B021A43437980791B0400060343080251
:102BE0001A43C019F16880000A500120FFF7F6FA75
:102BF000207A0221084320727068032101700121AC
:102C000041700A2181702079284320714EE020799B
:102C10004006400E207149E08A782648FF2A04D0F9
:102C200020794006400E207140E0052E0AD903228B
:102C30000A7001224A700A238B702179294321717D
:102C4000427033E020794006400E20712EE0CF78AC
:102C5000002F02D10F79002F0AD0052E22D9282269
:102C6000FFF721FA217A0120014321720020F8BDEB
:102C700000205070052E10D9022B05D21370207938
:102C80004006400E207111E003220A7001224A70B2
:102C9000887020792843207108E020794006400E92
:102CA000207103E020794006400E20710120F8BD1C
:102CB00020030040DC100020D40F0020283A000040
:102CC0007F07000000030040F7B514460126760296
:102CD0003046FFF70DFA8020FFF70AFA77003846F2
:102CE000FFF706FA0025200403D58020FFF7FEFA3F
:102CF00002E08020FFF7FCF93046FFF7F7FA0320E7
:102D00000146401EC0B20029FAD13046FFF7F0F963
:102D100064006D1C102DE6DB019C0025200403D50A
:102D20008020FFF7E3FA02E08020FFF7E1F9304668
:102D3000FFF7DCFA03200146401EC0B20029FAD199
:102D40003046FFF7D5F964006D1C102DE6DB009CC2
:102D50000025200403D58020FFF7C8FA02E0802078
:102D6000FFF7C6F93046FFF7C1FA03200146401EBF
:102D7000C0B20029FAD13046FFF7BAF964006D1CE1
:102D8000102DE6DB3846FFF7B1FA03210A46491E4B
:102D9000C9B2002AFAD13846FFF7AAF9FEBD0000F1
:102DA0008307FF22DB0E9A408907090E994000280D
:102DB00008DB830809489B001818036893430B43FA
:102DC000036070470007000F0838830804489B0021
:102DD0001818C36993430B43C361704700E400E0D4
:102DE00000ED00E010B500F02FF8134A107C8021B0
:102DF000084310741421002000BF401C8842FBD3FC
:102E0000107B0E490870FFF7ABFA00F023FB0C496A
:102E10000020087001210420FFF7C2FF02210320D7
:102E2000FFF7BEFF02210520FFF7BAFF054810217A
:102E300001600821016010BD20030040D81000206F
:102E4000D00F002080E200E010B400200749084ABB
:102E5000096884000B5CA4182360401CC0B21028D1
:102E6000F7D304490020087210BC7047F01000200E
:102E700000030040200300401CB5FFF7B3FF1449D6
:102E800002200872FFF774FA12480921009101909C
:102E90000023802210A1124800F0B6FC0D480B213F
:102EA000083800910190002380220EA10F4800F005
:102EB000ABFC08480A21001F0091019000238022EA
:102EC0000BA10D4800F0A0FC00F012FCFEE7000092
:102ED00000030040701000204D61696E000000008A
:102EE000FD2E0000535953434F524500C12F00009F
:102EF0005359534155580000712F0000642000F0D1
:102F0000A5FBFFF79FFA194C2078012824D002284E
:102F100025D0032826D0002211461046FFF7D4FE04
:102F2000FFF790FA2020FFF7C3F90028ECD1002228
:102F300011461046FFF7C8FEFFF784FA2078401CC0
:102F4000C0B22070032801D9002020702020FFF794
:102F5000AFF90028FAD0D7E7FFF7DAFAE2E7FFF790
:102F600075FCDFE7FFF7CEFBDCE700006410002014
:102F70000125104C104EFB270FE01048FFF753F8C7
:102F8000207840084000207007E0400705D50B4836
:102F9000FFF74BF820783840207002202946814006
:102FA0003160C11E002000F09FFA2078C107ECD0EC
:102FB000E3E70000D110002000E100E0F818002055
:102FC0001D48102101600821016020210160FD26BB
:102FD0001A4D1B4CFB270021C943002000F084FA46
:102FE0002878C10705D0400840002870FFF7CCFAC8
:102FF000F1E7810708D530402870FFF718F8207AEC
:10300000400840002072E6E74107E4D538402870C8
:10301000207A40060CD4207A400840002072FFF746
:1030200001F80848008F8007D5D5FEF7F3FFD2E7F7
:10303000FEF7FCFFCFE7000000E100E0D010002029
:10304000200300400003004070B50024E443002842
:103050000AD0014616480068FFF70FF8401E210A03
:10306000884203D9204670BD204670BD114A1168C0
:10307000FF242404A1430223002411600E490A798D
:10308000F3252A4003252A430A710A791A430A7153
:103090000A795206520E0A718C60C86008790122C2
:1030A00010430871054940200860002070BD0000F1
:1030B000CC10002004E400E00004004000E100E047
:1030C000F8B504460F46124EF5683068001D00F052
:1030D0003BFA601C07D1002F05D031680D48091D4F
:1030E00000F068FAF8BD2C1930684460AC4205D293
:1030F0003168B06B091D00F045FAF8BD3168706B9E
:10310000091D00F03FFAB06A8442F6D2B462F8BDFD
:10311000741000204004002070B5044600F056FAF8
:10312000194DA868401CA8602868002803D0686969
:10313000002807D00CE02C60A868012808D100F016
:10314000C3F805E02868E16AC06A884200D82C60AC
:10315000686A401C6862E06A2969884200D928616F
:103160001421484309494018211D00F023FA00F0BA
:1031700039FA6869002806D02868E16AC06A88427E
:1031800001D200F057FA70BD741000200003002037
:1031900070B50C4D0C4E11E000F018FAF068C468E0
:1031A000201D00F0D1F9A868401EA8606868401E84
:1031B000686000F017FA204600F008F868680028F8
:1031C000EAD170BD741000202C04002010B5044614
:1031D0005120005D002805D0012802D1204600F0D2
:1031E0000BFA10BD206B00F007FA204600F004FA3D
:1031F00010BD00000121C9020F48420705D0C01DC3
:10320000C008C0000C4A821A891A0C4B18600022B0
:103210005A6041180839C908C900103B19604A6052
:103220000A600A1A42600160406898605860012094
:10323000C007D86070470000F8100020C0100020C0
:10324000FFB581B00A9D0C9C0E461746B900A52219
:10325000206BFEF73AFF7F1E206BB9004018C008B4
:10326000C000009000202118325C20310A75315CCA
:10327000002902D0401C1028F5D3002620464030FB
:103280000746C6700C2D00D30B25E5626564A66465
:10329000201DFFF7AAF820461830FFF7A6F8246192
:1032A0000C20401BA0616462E6643E74049A01999C
:1032B000009800F0BFF820600B98002801D00B9810
:1032C000046005B0F0BD000070B50024114D14205D
:1032D0006043401900F04BF9641C0C2CF7D30D48E7
:1032E000F03000F044F90C4800F041F90A4814307D
:1032F00000F03DF90848283000F039F906483C3024
:1033000000F035F9044905481439416314318163EB
:1033100070BD000000030020040400207410002091
:1033200030B5134900E011460A688242FBD34B686E
:103330005C18844203D14068181848600846436806
:103340000D681C18AC420DD1094C103C2468A242F7
:1033500006D052689A1842600A681268026002E059
:10336000046000E00260814200D0086030BD0000CF
:10337000C01000200748416B0968002905D0416B47
:10338000C968C9684968816270470021C943816280
:103390007047000074100020F8B50546002600F0C4
:1033A000D9F9234F3868002801D1FFF723FFF868C7
:1033B000054238D1002D07D00835680704D06807CA
:1033C000400F0821081A4519002D2CD07868854235
:1033D00029D8174910310846046801E021460446FF
:1033E0006068A84202D220680028F7D13868844279
:1033F00019D00E680836206808606068411B1029E3
:1034000004D9601941606560FFF78AFF61687868D8
:10341000401A7860BA68904200D2B860F8680143F8
:1034200061600020206000F097FA3046F8BD00008F
:10343000B0100020001F01231B060360001F016065
:10344000001F0349016014380260203870470000F3
:10345000FB21000010B506480068002807D0054988
:1034600008600549086020220449FEF71CFE10BDD3
:10347000F4100020E4100020E81000208007006015
:1034800010B51748174C0078002800D1207020781C
:10349000002821D008281AD009280DD00A2802D0E7
:1034A000401E207010BD0920207000212020FFF751
:1034B00007F8FEF79DFF10BDFFF71AF8002803D0AC
:1034C0002078401E207010BDFEF792FF10BD002135
:1034D0000846FEF7F5FF10BDFEF742FF10BD0000E5
:1034E000EC100020D210002070B506460C4600F00B
:1034F0006DF8144D2868C06C00280AD12868012195
:1035000040300174002C04D02046FFF7D9FD00F0B4
:1035100091F800F067F800F059F82868C46C0021B1
:10352000002C07D0002E02D02868C16402E02A686F
:10353000601ED06428684030017400F053F82046C3
:1035400070BD0000741000200169436882689A60B1
:10355000836842685A604A68824201D182684A6040
:10356000002202610868401E086008687047014632
:10357000083141600022D2438260C16001610021B4
:103580000160704730B50C68621C02D002460832F8
:1035900002E0026904E01A4653681D68A542FAD9A0
:1035A00053684B6099608A60516008610168491CEA
:1035B000016030BD42684A6093688B6093685960CF
:1035C000916008610168491C0160704772B6044847
:1035D0000168491C0160BFF34F8FBFF36F8F7047C5
:1035E000C810002003490868401E0860002800D168
:1035F00062B67047C810002070B5002816D0083891
:1036000004460B4D6068E96808420FD02268002A22
:103610000CD18843606000F09DF8606869684018CC
:1036200068602046FFF77CFE00F096F970BD000050
:10363000B01000200120044900074860BFF34F8FFD
:10364000BFF36F8F7047000000ED00E010B5024639
:103650000020002A07D000F07DF800211046FFF777
:103660002FFD00F079F9002801D1FFF7E3FF10BD2D
:10367000F8B504460E4625464035287CFEF7F6FC94
:103680000746287C02212974E16C491CE164012869
:1036900023D1144D286B00280ED021461831124832
:1036A000FFF788FFE06A2968C96A884215D90120B6
:1036B000002E11D0306010E0201DFFF745FFE06ABA
:1036C0002969884200D928611421484307494018D4
:1036D000211DFFF76FFFE5E7E8613846FEF7CAFCFA
:1036E000F8BD000074100020180400200003002022
:1036F00010B586B000240594049403AA04A905A873
:10370000FEF7F2FF059804990191029000230094BE
:103710000CA10E48039A00F0A7F80D49C8620028D2
:1037200001D0012000E00020012808D172B600205D
:10373000C043886201204861CC6000F03BF806B0CD
:1037400010BD000049444C4500000000E527000082
:10375000741000200248016B491C0163704700008F
:103760007410002010B5114B186B002802D00120F6
:10377000D86110BD0020D86118690D4900E0401ED5
:10378000142242438A58002AF9D014224243511885
:103790004A6852684A600C460834A24201D1526815
:1037A0004A604968C9681960186110BD741000202A
:1037B0000003002010B50948016AFF2212041143DA
:1037C0000162016A120211430162FEF773FE0449AD
:1037D00000200860FEF736FC002010BD00ED00E080
:1037E000C810002010B5FEF741FC044600F05AF85E
:1037F000002803D001200349000748602046FEF757
:1038000039FC10BD00ED00E0FFB585B00E9F1646F7
:10381000B000FFF7C1FD054628000BD05420FFF78C
:10382000BBFD0446002C01D0256304E02846FFF7C9
:10383000E3FE00E00024002C13D0002051210855A5
:103840000F9903900097019102943246089B0699C4
:103850000598FFF7F5FC2046FFF75EFC012009B054
:10386000F0BD0020C043FAE7F0B585B00A9F0B9D7C
:103870000C9C84460026002C10D0002D0ED0256311
:1038800002255120055504A8009701AD51C5604699
:10389000FFF7D6FC2046FFF73FFC00E004960498B3
:1038A00005B0F0BDF8B50026294F386B002808D0C8
:1038B000B869401CB861F869002800D0012630467C
:1038C000F8BDFD686D1CFD60002D08D1786BB96BEB
:1038D0007963B863386A401C3862FFF74BFDB86AF9
:1038E00085420ED3786B0068002807D0786BC068DB
:1038F000C468606885420ED2B86202E00020C0430E
:10390000B86238681421C06A48431249085801282F
:10391000D1D90126CFE7201DFFF716FEA06A0028A7
:1039200003D020461830FFF70FFEE06A396988425D
:1039300000D938611421484306494018211DFFF77A
:1039400039FEE06A3968C96A8842CBD30126C9E7E3
:103950007410002000030020F8B500240027FFF7B2
:1039600035FE234D286B401E2863286B00283AD172
:10397000A868002837D001261AE0C068C46820462D
:103980001830FFF7E1FD201DFFF7DEFDE06A296931
:10399000884200D928611421484316494018211D46
:1039A000FFF708FEE06A2968C96A884200D3EE6121
:1039B000114801680029E0D1002C01D0FFF7DAFCA2
:1039C000AC69002C09D0FFF76DFF002800D0EE6134
:1039D000641E002CF7D10020A861E869002802D0FD
:1039E0000127FFF727FEFFF7FDFD3846F8BD000071
:1039F00074100020000300201804002000000000C4
:103A00000100000009000000490000004902000018
:103A1000499200000400000024000000240100007E
:103A20002409000024290000000202000000000018
:103A3000000000000000010301010101010101017A
:103A4000010100000002040200020000000000006A
:103A5000010103050301030101010101000000044C
:103A60000004060400000000000001010501050734
:103A7000050101010101000000000000000000013B
:103A80000606000001010101010101010107070112
:103A9000006000000010002064000000D42400003A
:103AA000646000006410002094000000D424000032
:103AB000F8600000F810002074080000E224000004
:103AC00000000000000000000000000000000000F6
:103AD00000000000000000000000000000000000E6
:103AE00000000000000000000000000000000000D6
:103AF00000000000000000000000000000000000C6
:1060000072B60F200E4C2070E514284600F01EF8E2
:10601000A614304600F01AF8284600F01DF8304665
:1060200000F01AF8207A4006FCD503202070BFF358
:106030004F8F05490348C860BFF34F8F00BFFDE78E
:10604000200300400400FA0500ED00E003B401481D
:10605000019001BDD922000003B40148019001BDA7
:10606000F12000000100000000000000000000001E
:106070000000000000000000000000000000000020
:106080000000000000000000000000000000000010
:106090000000000000000000000000000000000000
:1060A00000000000000000000000000000000000F0
:1060B00000000000000000000000000000000000E0
:1060C0000000000000000000AAAAAAAA00127A009C
:1060D00000000000800700600000000000000000D9
:1060E000000000800000006000000060010000006F
:0860F000F00700600000000051
:020000040000FA
:107FD0004F6374203239203230323031303A323807
:047FE0003A333400FC
:020000040000FA
:047FFC000000000081
:0200000460009A
:100780004653544E31306D2064480000E110FC00A7
:100790000303D00000FE0000000000000000000085
:0400000500002031A6
:00000001FF
